{
	"src/mocks/MockAggregratorV3Interface.sol": {
		"MockAggregratorV3Interface": {
			"abi": [
				{
					"inputs": [],
					"name": "latestRoundData",
					"outputs": [
						{
							"internalType": "uint80",
							"name": "roundId",
							"type": "uint80"
						},
						{
							"internalType": "int256",
							"name": "answer",
							"type": "int256"
						},
						{
							"internalType": "uint256",
							"name": "startedAt",
							"type": "uint256"
						},
						{
							"internalType": "uint256",
							"name": "updatedAt",
							"type": "uint256"
						},
						{
							"internalType": "uint80",
							"name": "answeredInRound",
							"type": "uint80"
						}
					],
					"stateMutability": "view",
					"type": "function"
				}
			],
			"devdoc": {
				"kind": "dev",
				"methods": {},
				"version": 1
			},
			"evm": {
				"assembly": "    /* \"src/mocks/MockAggregratorV3Interface.sol\":300:682  contract MockAggregratorV3Interface {... */\n  mstore(0x40, 0x80)\n    /* \"src/mocks/MockAggregratorV3Interface.sol\":449:463  3200 * (10**8) */\n  0x4a817c8000\n    /* \"src/mocks/MockAggregratorV3Interface.sol\":430:463  int256 mockPrice = 3200 * (10**8) */\n  0x00\n  sstore\n    /* \"src/mocks/MockAggregratorV3Interface.sol\":300:682  contract MockAggregratorV3Interface {... */\n  callvalue\n  dup1\n  iszero\n  tag_1\n  jumpi\n  0x00\n  dup1\n  revert\ntag_1:\n  pop\n  dataSize(sub_0)\n  dup1\n  dataOffset(sub_0)\n  0x00\n  codecopy\n  0x00\n  return\nstop\n\nsub_0: assembly {\n        /* \"src/mocks/MockAggregratorV3Interface.sol\":300:682  contract MockAggregratorV3Interface {... */\n      mstore(0x40, 0x80)\n      callvalue\n      dup1\n      iszero\n      tag_1\n      jumpi\n      0x00\n      dup1\n      revert\n    tag_1:\n      pop\n      jumpi(tag_2, lt(calldatasize, 0x04))\n      shr(0xe0, calldataload(0x00))\n      dup1\n      0xfeaf968c\n      eq\n      tag_3\n      jumpi\n    tag_2:\n      0x00\n      dup1\n      revert\n        /* \"src/mocks/MockAggregratorV3Interface.sol\":470:680  function latestRoundData()... */\n    tag_3:\n      tag_4\n      tag_5\n      jump\t// in\n    tag_4:\n      mload(0x40)\n      tag_6\n      swap6\n      swap5\n      swap4\n      swap3\n      swap2\n      swap1\n      tag_7\n      jump\t// in\n    tag_6:\n      mload(0x40)\n      dup1\n      swap2\n      sub\n      swap1\n      return\n    tag_5:\n        /* \"src/mocks/MockAggregratorV3Interface.sol\":540:554  uint80 roundId */\n      0x00\n        /* \"src/mocks/MockAggregratorV3Interface.sol\":556:569  int256 answer */\n      dup1\n        /* \"src/mocks/MockAggregratorV3Interface.sol\":571:588  uint256 startedAt */\n      0x00\n        /* \"src/mocks/MockAggregratorV3Interface.sol\":590:607  uint256 updatedAt */\n      dup1\n        /* \"src/mocks/MockAggregratorV3Interface.sol\":609:631  uint80 answeredInRound */\n      0x00\n        /* \"src/mocks/MockAggregratorV3Interface.sol\":651:652  0 */\n      dup1\n        /* \"src/mocks/MockAggregratorV3Interface.sol\":654:663  mockPrice */\n      sload(0x00)\n        /* \"src/mocks/MockAggregratorV3Interface.sol\":665:666  0 */\n      0x00\n        /* \"src/mocks/MockAggregratorV3Interface.sol\":668:669  0 */\n      dup1\n        /* \"src/mocks/MockAggregratorV3Interface.sol\":671:672  0 */\n      0x00\n        /* \"src/mocks/MockAggregratorV3Interface.sol\":643:673  return (0, mockPrice, 0, 0, 0) */\n      swap5\n      pop\n      swap5\n      pop\n      swap5\n      pop\n      swap5\n      pop\n      swap5\n      pop\n        /* \"src/mocks/MockAggregratorV3Interface.sol\":470:680  function latestRoundData()... */\n      swap1\n      swap2\n      swap3\n      swap4\n      swap5\n      jump\t// out\n        /* \"#utility.yul\":7:112   */\n    tag_9:\n        /* \"#utility.yul\":43:50   */\n      0x00\n        /* \"#utility.yul\":83:105   */\n      0xffffffffffffffffffff\n        /* \"#utility.yul\":76:81   */\n      dup3\n        /* \"#utility.yul\":72:106   */\n      and\n        /* \"#utility.yul\":61:106   */\n      swap1\n      pop\n        /* \"#utility.yul\":7:112   */\n      swap2\n      swap1\n      pop\n      jump\t// out\n        /* \"#utility.yul\":118:233   */\n    tag_10:\n        /* \"#utility.yul\":203:226   */\n      tag_18\n        /* \"#utility.yul\":220:225   */\n      dup2\n        /* \"#utility.yul\":203:226   */\n      tag_9\n      jump\t// in\n    tag_18:\n        /* \"#utility.yul\":198:201   */\n      dup3\n        /* \"#utility.yul\":191:227   */\n      mstore\n        /* \"#utility.yul\":118:233   */\n      pop\n      pop\n      jump\t// out\n        /* \"#utility.yul\":239:315   */\n    tag_11:\n        /* \"#utility.yul\":275:282   */\n      0x00\n        /* \"#utility.yul\":304:309   */\n      dup2\n        /* \"#utility.yul\":293:309   */\n      swap1\n      pop\n        /* \"#utility.yul\":239:315   */\n      swap2\n      swap1\n      pop\n      jump\t// out\n        /* \"#utility.yul\":321:436   */\n    tag_12:\n        /* \"#utility.yul\":406:429   */\n      tag_21\n        /* \"#utility.yul\":423:428   */\n      dup2\n        /* \"#utility.yul\":406:429   */\n      tag_11\n      jump\t// in\n    tag_21:\n        /* \"#utility.yul\":401:404   */\n      dup3\n        /* \"#utility.yul\":394:430   */\n      mstore\n        /* \"#utility.yul\":321:436   */\n      pop\n      pop\n      jump\t// out\n        /* \"#utility.yul\":442:519   */\n    tag_13:\n        /* \"#utility.yul\":479:486   */\n      0x00\n        /* \"#utility.yul\":508:513   */\n      dup2\n        /* \"#utility.yul\":497:513   */\n      swap1\n      pop\n        /* \"#utility.yul\":442:519   */\n      swap2\n      swap1\n      pop\n      jump\t// out\n        /* \"#utility.yul\":525:643   */\n    tag_14:\n        /* \"#utility.yul\":612:636   */\n      tag_24\n        /* \"#utility.yul\":630:635   */\n      dup2\n        /* \"#utility.yul\":612:636   */\n      tag_13\n      jump\t// in\n    tag_24:\n        /* \"#utility.yul\":607:610   */\n      dup3\n        /* \"#utility.yul\":600:637   */\n      mstore\n        /* \"#utility.yul\":525:643   */\n      pop\n      pop\n      jump\t// out\n        /* \"#utility.yul\":649:1301   */\n    tag_7:\n        /* \"#utility.yul\":848:852   */\n      0x00\n        /* \"#utility.yul\":886:889   */\n      0xa0\n        /* \"#utility.yul\":875:884   */\n      dup3\n        /* \"#utility.yul\":871:890   */\n      add\n        /* \"#utility.yul\":863:890   */\n      swap1\n      pop\n        /* \"#utility.yul\":900:969   */\n      tag_26\n        /* \"#utility.yul\":966:967   */\n      0x00\n        /* \"#utility.yul\":955:964   */\n      dup4\n        /* \"#utility.yul\":951:968   */\n      add\n        /* \"#utility.yul\":942:948   */\n      dup9\n        /* \"#utility.yul\":900:969   */\n      tag_10\n      jump\t// in\n    tag_26:\n        /* \"#utility.yul\":979:1049   */\n      tag_27\n        /* \"#utility.yul\":1045:1047   */\n      0x20\n        /* \"#utility.yul\":1034:1043   */\n      dup4\n        /* \"#utility.yul\":1030:1048   */\n      add\n        /* \"#utility.yul\":1021:1027   */\n      dup8\n        /* \"#utility.yul\":979:1049   */\n      tag_12\n      jump\t// in\n    tag_27:\n        /* \"#utility.yul\":1059:1131   */\n      tag_28\n        /* \"#utility.yul\":1127:1129   */\n      0x40\n        /* \"#utility.yul\":1116:1125   */\n      dup4\n        /* \"#utility.yul\":1112:1130   */\n      add\n        /* \"#utility.yul\":1103:1109   */\n      dup7\n        /* \"#utility.yul\":1059:1131   */\n      tag_14\n      jump\t// in\n    tag_28:\n        /* \"#utility.yul\":1141:1213   */\n      tag_29\n        /* \"#utility.yul\":1209:1211   */\n      0x60\n        /* \"#utility.yul\":1198:1207   */\n      dup4\n        /* \"#utility.yul\":1194:1212   */\n      add\n        /* \"#utility.yul\":1185:1191   */\n      dup6\n        /* \"#utility.yul\":1141:1213   */\n      tag_14\n      jump\t// in\n    tag_29:\n        /* \"#utility.yul\":1223:1294   */\n      tag_30\n        /* \"#utility.yul\":1289:1292   */\n      0x80\n        /* \"#utility.yul\":1278:1287   */\n      dup4\n        /* \"#utility.yul\":1274:1293   */\n      add\n        /* \"#utility.yul\":1265:1271   */\n      dup5\n        /* \"#utility.yul\":1223:1294   */\n      tag_10\n      jump\t// in\n    tag_30:\n        /* \"#utility.yul\":649:1301   */\n      swap7\n      swap6\n      pop\n      pop\n      pop\n      pop\n      pop\n      pop\n      jump\t// out\n\n    auxdata: 0xa2646970667358221220e02d4ec6e2e72897d79713c5d0a5dd54b63d042a54a70284eb16d38b4baca94764736f6c63430008180033\n}\n",
				"bytecode": {
					"linkReferences": {},
					"object": "6080604052644a817c80005f55348015610017575f80fd5b50610146806100255f395ff3fe608060405234801561000f575f80fd5b5060043610610029575f3560e01c8063feaf968c1461002d575b5f80fd5b61003561004f565b6040516100469594939291906100bf565b60405180910390f35b5f805f805f805f545f805f945094509450945094509091929394565b5f69ffffffffffffffffffff82169050919050565b6100898161006b565b82525050565b5f819050919050565b6100a18161008f565b82525050565b5f819050919050565b6100b9816100a7565b82525050565b5f60a0820190506100d25f830188610080565b6100df6020830187610098565b6100ec60408301866100b0565b6100f960608301856100b0565b6101066080830184610080565b969550505050505056fea2646970667358221220e02d4ec6e2e72897d79713c5d0a5dd54b63d042a54a70284eb16d38b4baca94764736f6c63430008180033",
					"opcodes": "PUSH1 0x80 PUSH1 0x40 MSTORE PUSH5 0x4A817C8000 PUSH0 SSTORE CALLVALUE DUP1 ISZERO PUSH2 0x17 JUMPI PUSH0 DUP1 REVERT JUMPDEST POP PUSH2 0x146 DUP1 PUSH2 0x25 PUSH0 CODECOPY PUSH0 RETURN INVALID PUSH1 0x80 PUSH1 0x40 MSTORE CALLVALUE DUP1 ISZERO PUSH2 0xF JUMPI PUSH0 DUP1 REVERT JUMPDEST POP PUSH1 0x4 CALLDATASIZE LT PUSH2 0x29 JUMPI PUSH0 CALLDATALOAD PUSH1 0xE0 SHR DUP1 PUSH4 0xFEAF968C EQ PUSH2 0x2D JUMPI JUMPDEST PUSH0 DUP1 REVERT JUMPDEST PUSH2 0x35 PUSH2 0x4F JUMP JUMPDEST PUSH1 0x40 MLOAD PUSH2 0x46 SWAP6 SWAP5 SWAP4 SWAP3 SWAP2 SWAP1 PUSH2 0xBF JUMP JUMPDEST PUSH1 0x40 MLOAD DUP1 SWAP2 SUB SWAP1 RETURN JUMPDEST PUSH0 DUP1 PUSH0 DUP1 PUSH0 DUP1 PUSH0 SLOAD PUSH0 DUP1 PUSH0 SWAP5 POP SWAP5 POP SWAP5 POP SWAP5 POP SWAP5 POP SWAP1 SWAP2 SWAP3 SWAP4 SWAP5 JUMP JUMPDEST PUSH0 PUSH10 0xFFFFFFFFFFFFFFFFFFFF DUP3 AND SWAP1 POP SWAP2 SWAP1 POP JUMP JUMPDEST PUSH2 0x89 DUP2 PUSH2 0x6B JUMP JUMPDEST DUP3 MSTORE POP POP JUMP JUMPDEST PUSH0 DUP2 SWAP1 POP SWAP2 SWAP1 POP JUMP JUMPDEST PUSH2 0xA1 DUP2 PUSH2 0x8F JUMP JUMPDEST DUP3 MSTORE POP POP JUMP JUMPDEST PUSH0 DUP2 SWAP1 POP SWAP2 SWAP1 POP JUMP JUMPDEST PUSH2 0xB9 DUP2 PUSH2 0xA7 JUMP JUMPDEST DUP3 MSTORE POP POP JUMP JUMPDEST PUSH0 PUSH1 0xA0 DUP3 ADD SWAP1 POP PUSH2 0xD2 PUSH0 DUP4 ADD DUP9 PUSH2 0x80 JUMP JUMPDEST PUSH2 0xDF PUSH1 0x20 DUP4 ADD DUP8 PUSH2 0x98 JUMP JUMPDEST PUSH2 0xEC PUSH1 0x40 DUP4 ADD DUP7 PUSH2 0xB0 JUMP JUMPDEST PUSH2 0xF9 PUSH1 0x60 DUP4 ADD DUP6 PUSH2 0xB0 JUMP JUMPDEST PUSH2 0x106 PUSH1 0x80 DUP4 ADD DUP5 PUSH2 0x80 JUMP JUMPDEST SWAP7 SWAP6 POP POP POP POP POP POP JUMP INVALID LOG2 PUSH5 0x6970667358 0x22 SLT KECCAK256 0xE0 0x2D 0x4E 0xC6 0xE2 0xE7 0x28 SWAP8 0xD7 SWAP8 SGT 0xC5 0xD0 0xA5 0xDD SLOAD 0xB6 RETURNDATASIZE DIV 0x2A SLOAD 0xA7 MUL DUP5 0xEB AND 0xD3 DUP12 0x4B 0xAC 0xA9 SELFBALANCE PUSH5 0x736F6C6343 STOP ADDMOD XOR STOP CALLER "
				},
				"gasEstimates": {
					"creation": {
						"codeDepositCost": "65200",
						"executionCost": "22220",
						"totalCost": "87420"
					},
					"external": {
						"latestRoundData()": "infinite"
					}
				},
				"methodIdentifiers": {
					"latestRoundData()": "feaf968c"
				}
			},
			"storageLayout": {
				"storage": [
					{
						"astId": 8134,
						"contract": "src/mocks/MockAggregratorV3Interface.sol:MockAggregratorV3Interface",
						"label": "mockPrice",
						"offset": 0,
						"slot": "0",
						"type": "t_int256"
					}
				],
				"types": {
					"t_int256": {
						"encoding": "inplace",
						"label": "int256",
						"numberOfBytes": "32"
					}
				}
			},
			"userdoc": {
				"kind": "user",
				"methods": {},
				"version": 1
			}
		}
	}
}